:020000040800F2
:10400000C80C0120294300084B510008A54F0008A7
:10401000495100085D460008B9560008000000003C
:1040200000000000000000000000000069420008DD
:104030005F46000800000000C54200080554000863
:104040004343000843430008434300084343000838
:104050004343000843430008434300084343000828
:104060004343000843430008434300084343000818
:104070004343000843430008434300084343000808
:1040800043430008434300084343000843430008F8
:1040900043430008434300084343000843430008E8
:1040A00043430008434300084343000843430008D8
:1040B00043430008434300084343000843430008C8
:1040C00043430008434300084343000843430008B8
:1040D0004343000841550008434300084343000898
:1040E0004343000843430008434300084343000898
:1040F0004343000843430008434300084343000888
:104100004343000843430008434300084343000877
:104110004343000843430008434300084343000867
:104120004343000843430008434300084343000857
:10413000434300088D4800084343000843430008F8
:104140004343000843430008434300084343000837
:104150004343000843430008434300084343000827
:104160004343000843430008434300084343000817
:104170004343000843430008434300084343000807
:104180006D4F00084343000800F002F800F05CF8AF
:104190000AA090E8000C82448344AAF10107DA45A2
:1041A00001D100F051F8AFF2090EBAE80F0013F098
:1041B000010F18BFFB1A43F001031847D079000024
:1041C000F07900000A444FF0000C10F8013B13F0A6
:1041D000070408BF10F8014B1D1108BF10F8015B60
:1041E000641E05D010F8016B641E01F8016BF9D153
:1041F00013F0080F1EBF10F8014BAD1C0C1B09D1AA
:104200006D1E58BF01F801CBFAD505E014F8016B1B
:1042100001F8016B6D1EF9D59142D6D370470000AD
:104220000023002400250026103A28BF78C1FBD8BF
:10423000520728BF30C148BF0B6070471FB507F059
:1042400071FB1FBD10B510BD00F0C6F91146FFF798
:10425000F5FF03F093FA00F0F8F903B4FFF7F2FF6B
:1042600003BC01F02AFA00002C4B19680868B0E87A
:10427000F04F80F30988BFF36F8F4FF0000080F399
:10428000118870470000000008480068006880F34B
:1042900008884FF0000080F3148862B661B6BFF35F
:1042A0004F8FBFF36F8F00DF00BF00BF08ED00E04E
:1042B000DFF80C00016841F470010160704700BF35
:1042C00088ED00E0EFF30980BFF36F8F134B1A689E
:1042D0001EF0100F08BF20ED108A20E9F04F10608B
:1042E00009B44FF0BF0080F31188BFF34F8FBFF3C5
:1042F0006F8F06F003FF4FF0000080F3118809BCB8
:1043000019680868B0E8F04F1EF0100F08BFB0EC55
:10431000108A80F30988BFF36F8F70473000002048
:10432000EFF30580704700000948804709480047BF
:10433000FEE7FEE7FEE7FEE7FEE7FEE7FEE7FEE755
:10434000FEE7FEE704480549054A064B70470000B2
:104350003154000889410008C8060120C80C01201A
:10436000C8080120C8080120704700000FB40449A4
:1043700010B503AA029800F0CBF810BC5DF814FB4E
:104380000400002040EA010310B59B070FD1042A66
:104390000DD310C808C9121F9C42F8D020BA19BA10
:1043A000884201D9012010BD4FF0FF3010BD1AB175
:1043B000D30703D0521C07E0002010BD10F8013BCA
:1043C00011F8014B1B1B07D110F8013B11F8014BF1
:1043D0001B1B01D1921EF1D1184610BD032A40F2D9
:1043E000308010F0030C00F0158011F8013BBCF197
:1043F000020F624498BF11F801CB00F8013B38BFAF
:1044000011F8013BA2F1040298BF00F801CB38BFBC
:1044100000F8013B11F0030300F08C80083AC0F073
:10442000088051F8043B083A51F804CBA0E8081082
:10443000F5E7121D5CBF51F8043B40F8043BAFF3B5
:104440000080D20724BF11F8013B11F801CB48BF0F
:1044500011F8012B24BF00F8013B00F801CB48BF45
:1044600000F8012B704702F0FF0343EA032242EAFF
:10447000024200F002B84FF000020429C0F012809E
:1044800010F0030C00F01B80CCF1040CBCF1020F07
:1044900018BF00F8012BA8BF20F8022BA1EB0C01DC
:1044A00000F00DB85FEAC17C24BF00F8012B00F8D2
:1044B000012B48BF00F8012B70474FF0000200B5F8
:1044C000134694469646203922BFA0E80C50A0E837
:1044D0000C50B1F12001BFF4F7AF090728BFA0E8E5
:1044E0000C5048BF0CC05DF804EB890028BF40F8B1
:1044F000042B08BF704748BF20F8022B11F0804FF3
:1045000018BF00F8012B704770477047704770471D
:10451000074B70B50D467B4400F047F8044628462B
:1045200000F056F810B14FF0FF3070BD204670BD5E
:10453000432A000010B5203AC0F00B80B1E81850B3
:10454000203AA0E81850B1E81850A0E81850BFF47D
:10455000F5AF5FEA027C24BFB1E81850A0E818501C
:1045600044BF18C918C0BDE810405FEA827C24BF70
:1045700051F8043B40F8043B08BF7047D20728BFFE
:1045800031F8023B48BF11F8012B28BF20F8023B4D
:1045900048BF00F8012B70470048704764060120AF
:1045A00001694A1C02610878704700B58FB0CDE9F7
:1045B00001310021059105497944CDE903101146E7
:1045C000684600F02EF80FB000BD0000E5FFFFFFC9
:1045D000007B00F0800070477546FFF7DDFFAE46B8
:1045E00005006946534620F00700854618B020B5FF
:1045F000FFF7A8FEBDE820404FF000064FF000078F
:104600004FF000084FF0000B21F00701AC46ACE87A
:10461000C009ACE8C009ACE8C009ACE8C0098D46E7
:1046200070472DE9F04106460024D6E90170F5688F
:104630008046304603E04146B847641C3046A847F0
:104640000028F8D12046BDE8F08110B50446AFF34C
:1046500000802046BDE81040FFF7FFBDFEE7704731
:1046600010B500F0A1FCBDE8104000F0C3BA000096
:10467000014948617047000000900240044A002947
:10468000D16901D0014300E08143D161704700004E
:104690000090024005490028886902D040F00200DD
:1046A00001E020F0020088617047000000900240A5
:1046B000F0B5124F00234FF0004C44F2F45E561E4A
:1046C000786013E000EB4314C4F800C0C3EBC315DB
:1046D00005EB450501EB8505C4E901E5B34203D2CD
:1046E00004F12005E56000E0E0605B1C9342E9D343
:1046F0000349C8600348B860F0BD000024000020F2
:1047000000900240643E0020426811B122F0004156
:1047100001E042F000414160704700000549002877
:10472000886902D040F4005001E020F40050886114
:104730007047000000900240F0B50F4C00234FF48A
:104740008017561E206011E000EB43142760C3EB76
:10475000C31505EB450501EB8505A560B34203D202
:1047600004F12005E56000E0E0605B1C9342EBD3C0
:1047700002490861F0BD00002400002000900240C2
:1047800002680A430260704710B501214C062046BA
:1047900000F02EFD2046BDE81040002100F028BDAD
:1047A00001B581B001980090002801D0401EFAE7C1
:1047B0000CBD0000074908B5886940F48010886185
:1047C000886900904FF6FF70FFF7EAFF0098886154
:1047D00008BD000000900240034A014600205269D3
:1047E0000A4200D001207047009002400349002097
:1047F0000968C90700D001207047000000900240FE
:1048000038B5214B00240094D3E9012117E06D1C39
:1048100000951568AD0507D51568ED0504D40A6047
:1048200001228A605A6808E01568ED0511D4156800
:10483000AD050ED48D686D1C8D60D2685A60156808
:10484000002D02DB009D052DE1D3046044608460EF
:1048500038BD4A608C68641C8C608C68012C00D167
:104860000A605C682268C2F30D458A682D1F012A20
:1048700002D90A68926800E0A2680968E4685C608E
:104880000560C0E9012138BD2400002008B50020E2
:1048900000904020FFF7A0FF012804D10B48694693
:1048A000006806F047FD4020FFF7E2FE4FF480303D
:1048B000FFF7DEFE0098002807D005494FF0805032
:1048C0000860BFF34F8FBFF36F8F08BD5401002006
:1048D00004ED00E02DE9F04786B0002704460120F2
:1048E0000097974ECDE9000730698A4620F01C05F5
:1048F00002A800F0A1FC93490398934A0144914215
:1049000002D245F0080516E09049914A01449142CF
:1049100002D245F00C050EE08E498F4A01449142C7
:1049200009D38E4908448E49884202D245F00405D5
:1049300001E045F0100535614FF40042002150467A
:1049400000F09AFA4FF400684FF48049A0B185480E
:10495000FFF726FF206898B3834D01980121401C82
:104960000190504600F0FEF9400702D40198A84299
:10497000F3D30198A84201D100973CE04FF4805254
:1049800000215046019700F077FA00B9009701988E
:104990000121401C0190504600F0E4F9800602D449
:1049A0000198A842F3D30198A842E5D01F215046B0
:1049B000019700F0D7F9C10603D5C4F8208001E0C3
:1049C00007E02762400701D5676112E0C4F8149040
:1049D0000FE0206A6169C00840EA510082B20021FC
:1049E000504600F049FA00B900976FF07F40FFF79A
:1049F000D7FE009818B9C4F81490C4F82080306825
:104A00005A490840D4E901121143E26854F8103FB2
:104A10001A43114362681143A2681143E2681143CB
:104A20002269114354F8142F114362681143A2689C
:104A30001143E26811432269114301433160316837
:104A40004FF6FF752846FFF7ABFE3160F4E905012C
:104A50000843D4E9021211430843216908436169FC
:104A60000843A1690843E1690843706071682846FA
:104A7000FFF796FE7160206AB060606AF060B0690E
:104A80004FF641710840D4E90B121143238D626B3C
:104A900042EA03421143A26B1143E26B114301430B
:104AA000B161B1692846FFF77BFEB161D4E910011D
:104AB0000843F061F1692846FFF772FEF1612C4965
:104AC00088692C4A1040D4E912231A43D4E91436D9
:104AD00033431A43A36D1A43E36D1A43236E1A43FB
:104AE000636E1A43A36E1A4302438A618E69284695
:104AF000FFF756FE8E61D4E91B021043626F54F833
:104B0000783F1A431043626840EA8200A26810436B
:104B100040F4000008600C682846FFF741FE0C6076
:104B2000086840F0800008600C682846FFF738FEEF
:104B30000C600098012800D0002006B0BDE8F08786
:104B40000080024000D3CEFEC0E1E40040F1E9FD68
:104B500040787D0100796CFC005A6202001F0AFA5D
:104B600080F0FA02FFFF0F00FFFF04000F8120FF1B
:104B700000900240233FDEF8054B8A881844026407
:104B80000A78D1F8011042EA01214164704700001F
:104B90000080024008B500210091094900280868FA
:104BA00002D040F0040001E020F004000860086832
:104BB00000904FF6FF70FFF7F3FD0098086008BD06
:104BC0000080024008B500210091094900280868CA
:104BD00002D040F0080001E020F0080008600868FA
:104BE00000904FF6FF70FFF7DBFD0098086008BDEE
:104BF0000080024000B5AFB001214FF0606000F0CE
:104C0000EBFAFFF7C1FD00F0D9F8FFF7EFFD01283F
:104C1000FBD0684600F0EBF800200C9001211190C9
:104C20000D90129020900B9004908B03259026906D
:104C300009902D902E93169017904FF000720091CE
:104C40000B04229003900290CDE92923CB02CDE9F9
:104C5000070318900E90279040F204431C90139184
:104C60001493219289052B910A9004211A9028917E
:104C700040230690CDE90F030590C9041D90CDE9AE
:104C8000231009122C9140F202411F9015911B90A4
:104C90001E9001908020199000216846FFF71AFEAF
:104CA000012803D101210248FFF7E8FC2FB000BD25
:104CB00040000100F0B5294E002231680B68002B3E
:104CC00001DA0020F0BD40F2F454A04215D9B0FB47
:104CD000F4F5B0FBF4F304FB150505B15B1C012BE7
:104CE0000BD0C3F10107C7EBC71707EB470700EB72
:104CF00087005D1EC0F30C0023E00A6842F04052BA
:104D00000A60C0F30C004860086840F0004008608A
:104D1000C96818E00F6827F040570F601AB90F688C
:104D200047F080570F604C60AA4204D10F6847F0EB
:104D300000570F6048600F6847F000470F60C96870
:104D4000521C9A42E6D3064831604169490703D5AF
:104D500004214161002141600120F0BD24000020B8
:104D60000090024018B500220092124A13694FF6D3
:104D7000FF7403F01C0304EAC02018434FF4F863E7
:104D800003EA8111014321F0020040F001001061AB
:104D900009490098401C00901069C00702D0009893
:104DA0008842F6D30098884201D1002018BD50698E
:104DB00080B218BD00800240FFFF04000248016875
:104DC00041F00101016070470090024000B50120F0
:104DD000FFF7F8FE0120FFF7DDFEFFF7EBFC0120F7
:104DE000FFF79CFC01205DF804EBFFF753BC0121A9
:104DF00001600021416081604FF48042C160C0E9E0
:104E00000412D2108161C0E9071241628162C1625D
:104E10000163416340228163C0E90F122022C0E98F
:104E20001121C1640165416581658022C165C0E9C8
:104E300018128166C16601674167D2048167C0E9C3
:104E40001F125210C0E921211311C0E92331C0F80B
:104E50009410C0F89810C0F89C10C0E928125212A3
:104E6000C0F8A8209201C0F8AC205212C0E92C2151
:104E7000C0F8B8107047000038B500230093114BFC
:104E80001C694FF6FF7504F01C0405EAC02020439E
:104E90004FF4F86404EA8111014341F003005A61C0
:104EA000186109490098401C00901869C00702D099
:104EB00000988842F6D30098884201D1002038BD7E
:104EC000012038BD00800240FFFF0400F0B5002241
:104ED00001274FF0030C0B6807FA02F52B40AB4299
:104EE0002CD1066853000CFA03F4A64306600E7931
:104EF000D0F800E09E4046EA0E0606600E79012ECC
:104F000001D0022E12D18668A64386604E79D0F871
:104F100008E09E4046EA0E0686604668AE4346605C
:104F200045688E799640B6B235434560C568A5435D
:104F3000C560CC799C40C3681C43C460521C102AD5
:104F4000C9D3F0BD4B07DB0E9A40C90810B500EB82
:104F50008100016A0F249C40A1430162016A114350
:104F6000016210BD418370470183704710B5202056
:104F700000F0C0F901280CD0402000F0BBF9012856
:104F800009D0012000F0C6F900F0BEF9044908601C
:104F900010BD202000E04020BDE8104000F094B992
:104FA00000000020FEE700002DE9FE4301214D2016
:104FB00000F012F90121880300F032F9012000F01D
:104FC000C1F902208DF8040000248DF806408620E7
:104FD000DFF8D88000908DF8074003258DF8055044
:104FE00069464046FFF772FF3220314E0090694615
:104FF0003046FFF76BFF4FF4D0402E4F00906946CC
:105000003846FFF763FF8DF80550012508208DF81D
:10501000045000908DF806408DF8074069462648F8
:10502000FFF754FF0B2201214046FFF78BFF0B22B5
:1050300002214046FFF786FF0B2207214046FFF77B
:1050400081FF0B2201213046FFF77CFF0B22042158
:105050003046FFF777FF0B2205213046FFF772FF3E
:105060000B2211463846FFF76DFF0B220D21384603
:10507000FFF768FF0B220E213846FFF763FF3D2044
:105080008DF808008DF80B508DF809508DF80A50F6
:1050900002A800F05BF8002000F010F8322005F0C4
:1050A00035FF012000F00AF8BDE8FE830000024051
:1050B0000008024000180240000C0240064A012885
:1050C00005D0002807D108211046FFF74BBF082163
:1050D0001046FFF749BF7047000C02400EB5002193
:1050E000084605F0DDFB14490020154A0860091D3B
:1050F000114B0860091D08330860CDE900020F4913
:1051000002911A1F111F0F4802F0FCFC0D4802F01B
:10511000E3FD0C4802F0F5FD0A4890F83500400721
:10512000084802D502F00AFE01E002F0DBFDBDE80E
:105130000E40044801F0E8BA0800002031A9000838
:10514000F56E000860010020FEE7704730B50F23C0
:10515000C27801780125FAB1144A126801F1E02100
:1051600002F4E062C2F5E062C2F30722C2F1040475
:10517000D3404278A24084781C401443220181F835
:105180000024007800F01F018D404009800000F1EC
:10519000E020C0F8005130BD01F01F0085404809F3
:1051A000800000F1E020C0F8805130BD0CED00E03F
:1051B0000249084302490860704700000000FA05F0
:1051C0000CED00E0024A11400143024801607047C3
:1051D00080FFFF1F08ED00E0044A0029116801D09C
:1051E000014300E081431160704700003038024005
:1051F000044A0029116801D0014300E08143116095
:105200007047000010380240044A0029116801D09C
:10521000014300E0814311607047000034380240D0
:10522000044A0029116801D0014300E08143116064
:10523000704700004438024070B5204B1968204C7C
:1052400011F00C0104D06610042903D0082903D002
:1052500004601BE0066019E0184A121F1168C1F3D0
:105260008055116801F03F0115B1B6FBF1F101E085
:10527000B4FBF1F114681268C4F388146143C2F3FB
:105280000142521C5200B1FBF2F1016019680F2279
:1052900002EA11110B4A545C0168E14041601C684C
:1052A000072505EA9424145D21FA04F484601B6840
:1052B00005EA5333D25CD140C16070BD083802406A
:1052C0000024F400140000200249C043C0B208606A
:1052D000704700000408065005490028086802D0FD
:1052E00040F0040001E020F0040008607047000076
:1052F00000080650034A0146002012680A4200D006
:1053000001207047040806500148006870470000FB
:105310000808065005490028086802D040F0080037
:1053200001E020F008000860704700000008065007
:1053300010B501214020FFF767FFBDE810400120B4
:10534000FFF7CABF0149C1F8DC00704700002742DF
:105350000CB50022274900920192086840F4803081
:1053600008604FF4A043086800F4003001900098F2
:10537000401C0090019810B900989842F3D1086839
:10538000800334D5012001901A484030026842F071
:10539000805202601848026842F440420260154898
:1053A000083002680260026842F40042026002684B
:1053B00042F4A0520260031F104A1A600A6842F0C9
:1053C00080720A600A689201FCD50D4940F20572AC
:1053D0000A60016821F003010160016841F00201E7
:1053E00001600168C1F381010229FAD10CBD01926B
:1053F0000CBD000000380240007000400854400717
:10540000003C024010B5BF2080F31188BFF34F8FDE
:10541000BFF36F8F06F020F918B104494FF08050A8
:105420000860002080F3118810BD000004ED00E04A
:10543000124810B5016841F470010160104801681C
:1054400041F0010101600E4A00210832116002683A
:105450000C4B1A400260031D0B4A1A60026822F4CA
:105460008022026006480C300160FFF771FF03499B
:105470004FF000608039086010BD000088ED00E04A
:1054800000380240FFFFF6FE10300024F0B506465B
:10549000012187B00846FFF79FFE01211020FFF78A
:1054A000BFFE02218DF8141000248DF8164001254E
:1054B0004FF4C0608DF817501F4F04908DF81510F1
:1054C00004A93846FFF702FD072209213846FFF7F5
:1054D00039FD07220A213846FFF734FD0C20ADF8CC
:1054E0000A00ADF80640ADF80C40ADF80840ADF844
:1054F0000440124C00966946204600F087F82520AB
:105500008DF818008DF81B508DF819508DF81A5031
:1055100006A8FFF71BFE012240F22551204600F0AD
:105520005CF80121204600F028F84021204600F0D8
:105530001BF807B0F0BD0000000002400010014061
:1055400070B5084D40F225542146284600F026F853
:10555000012805D121462846BDE8704000F007B873
:1055600070BD000000100140C943018070470A0A65
:1055700001219140C943018070470029818902D0EF
:1055800041F4005101E021F400518181704702464D
:10559000002012880A4200D00120704770B501F047
:1055A0001F0501260024C1F3421306FA05F2012B60
:1055B0000FD0022B0FD0838A4FEA112100881342AB
:1055C00006FA01F600EA060001D000B101242046E7
:1055D00070BD8389F0E7038AEEE710B5C1F342138B
:1055E00001F01F040121A140012B07D0022B07D09D
:1055F0001430002A026805D00A4304E00C30F8E7B2
:105600001030F6E78A43026010BD00007FB5044603
:10561000008A0D46C98820F4405001432182A089A8
:1056200041F20C618843A9882A8911436A8902439F
:105630001143A181A08A20F44071A8890843A08267
:105640006846FFF7F9FD1A48844202D0194884429F
:1056500001D1039800E00298A189090400EBC00180
:1056600001EB0010296801D5490000E08900B0FB7A
:10567000F1F06422B0FBF2F109010B096FF018059B
:105680006B4300EB8300A3891D044FF0320306D562
:1056900003EBC000B0FBF2F000F0070005E003EB05
:1056A0000010B0FBF2F000F00F00084320817FBD36
:1056B0000010014000140140FEE7704710B501F0F2
:1056C00031FBBDE81040002202494FF47A7003F02C
:1056D00069B80000BD560008806A28B109680068F2
:1056E000814201D10120704700207047011D01F067
:1056F00003BB7CB5826A0446002A1ED010790028BC
:105700001BD0D4F82E000090608EADF80400D1F8C4
:105710000E308D6910790831012810680ED083424F
:105720000BD106226846FEF72DFE002805D0204644
:10573000A46A217A81B100F01DF87CBD834209D0B2
:10574000002BFAD18542F8D106226846FEF71AFEF0
:105750000028F2D02046EEE7FFF7C8FF6420207251
:105760007CBD816A002904D00979002901D000F0AC
:1057700053B87047816A4A7A521C4A72AFF300806C
:105780002DE9F0410546846A90F835004FF0000895
:10579000C0072BD01C4B28461A46114602F06CFA63
:1057A0003CB300202071E080607120602072688E20
:1057B000164EAF6A304401F0A1FF01F09FFF797AE5
:1057C0000844134980B20843B04201D200F57E403C
:1057D0001049884201D9A0F57E4001F08FFF20607A
:1057E000284600F019F84046BDE8F0816FF00F0040
:1057F000FAE70C21012001F0E1FF040001D0AC62C6
:10580000D5E74FF0FF30EFE730B900080001FEA9FF
:105810000000FEA9FFFEFEA910B550F8281F0122C6
:105820000A7100224A71827AC37A047A42EA0362D8
:10583000437A00681B0443EA04231A4300B1407A08
:1058400010440A22B0FBF2F302FB1300C880487A2E
:105850000A2802D94FF41670C88010BD2DE9FC410A
:1058600032481426002705685BE0AC6A002C57D04C
:10587000207A08B1401E2072E08808B1401EE08006
:105880002079012802D002284AD139E0E088A0BB63
:10589000607903280ED3022020714FF6FF72A96AA7
:1058A000CDE90027284601AB6A4602F0E5F9012060
:1058B000607123E02846A96A01F01EFA6079401C55
:1058C000C0B26071032819D095F8320095F83310F2
:1058D00095F8302040EA016195F83100000440EA73
:1058E00002200143A86A00B1407A08440A21B0FBB3
:1058F000F1F201FB12000A30E08011E0E6800FE0D7
:10590000E08868B92846FFF7F1FEE6806079401C20
:10591000C0B26071022803D3032020716771E78051
:105920002D68002DA1D1BDE8FC810000F000002011
:1059300000280BD0426A002A08D05379082B05D1E1
:105940000968D269914201D100F058B970472DE938
:10595000FC41050067D06C6A002C64D04FF0000E4B
:10596000A4F812E0A06A4FF03C02411C4FF4803CC6
:105970004FF001074FF6FF760AD01E30B0FBF2F071
:10598000604500D330460004000CA08200D1A782FD
:10599000E36A581C0CD01E33B3FBF2F1614500D30F
:1059A00031460804000C608100D167816089E08184
:1059B000206B411C0CD01E30B0FBF2F2624500D3CC
:1059C00032461004000CA08100D1A781A08920825A
:1059D0006189A089814202D308B1A4F80AE0E07984
:1059E00008B1206A08E0237F7F2B01D8FF2003E065
:1059F000C02B03D36FF07F40009000E00096606AF8
:105A0000019028B9E0690099084040F08070019049
:105A10000A21204600F070FE01AB6A4604F11C0129
:105A2000284602F029F9BDE8FC8170B5446A0546B4
:105A30000821204600F060FE002204F11C012846E7
:105A400001F096F8A079FF2801D2401CA0714FF414
:105A5000FA7140F2E730B0FBF1F0208170BD000038
:105A600070B5294804684CE0616AA1B3487990B3E5
:105A7000888A68B1488A401C80B248828A8A9042EB
:105A800006D1204600F0CAFC204600F03DFE37E07B
:105A9000088A18B1421E0A82012806D0C889D0B1EE
:105AA000421ECA81012817D02AE0656A204669791A
:105AB000012905D00A2903D0052901D004291FD1C5
:105AC00000F030FBA88A698A401A022818DB00EB34
:105AD000D0704008288213E0656A20466979012960
:105AE00003D00A2901D005290AD100F0F5FCA889C4
:105AF000698A401A022803DB00EBD0704008E88175
:105B00002468002CB0D170BDF00000202DE9F047D2
:105B1000994615460F4606000ED06FB14FF49A7A9B
:105B20004FF420725146362002F03EF9B0F10008E1
:105B300003D0032D06D102E00020BDE8F08778797C
:105B4000032807D1B979234811B94168491C41603C
:105B500040683860D8F8044051462046FEF78BFC78
:105B600001202070607096F83400A070386801F051
:105B7000C5FD6060082D0AD0042D08D0072D06D081
:105B8000032D06D17879052801D0042801D1706849
:105B9000E0600023F018E1185B1C90F82E009BB227
:105BA0000877062BF6D30C48C4F8EC0004F1F0019A
:105BB000012335220C46002000F070F92A462146C8
:105BC00000F073F9B9F1000F01D0A9F800004046C8
:105BD000B3E70000980000206382536310B5064CC1
:105BE0002078401E10F0FF00207004D1A06805F05E
:105BF0006DF80020A06010BD98000020FEB5446A3A
:105C000006460C21204600F077FD02AB0422214617
:105C10003046FFF77BFF050028D069680423F03188
:105C200032220F46BDF8080000F038F9ADF8080040
:105C3000E06901F063FD02463946BDF8080000F056
:105C400038F9ADF808002A46394600F04AF90F48FD
:105C50004323CDE900600F480D4A2946806805F0CE
:105C60006DF80646284602F0D0F901E04FF0FF3605
:105C7000A079FF2801D2401CA07142F603104FF416
:105C8000FA71B0FBF1F020813046FEBD30B900085A
:105C900034B90008980000202DE9FE4F456A0746F8
:105CA0004FF0000906212846C5F81C9000F024FD9D
:105CB00002AB012229463846FFF728FF06003BD0F9
:105CC00071680223F0318A4639225446BDF8080033
:105CD00000F0E4F8ADF80800BA8D214600F0F9F8BC
:105CE000ADF8080003233722214600F0D7F8DFF88B
:105CF0008480ADF808000024514618F80420BDF84F
:105D0000080000F0D2F8641CE4B2ADF80800032CDF
:105D1000F2D33246514680B200F0E3F816484323EE
:105D2000CDE900701348154A401E3146806805F0E1
:105D300005F8304602F069F9A879FF2801D2401C25
:105D4000A871C1B2062902D20120884000E03C209F
:105D500000EB4001C1EBC0104FF6FF7101EAC0003B
:105D60004FF4FA7100F2F310B0FBF1F028814846CD
:105D7000BDE8FE8F9900002030B9000834B9000852
:105D800070B50B48002504680EE0616A59B10889B6
:105D9000012803D9A0F10100088104E003D10D819D
:105DA000204600F0FAFC2468002CEED170BD000003
:105DB000F000002070B5446A0022164E2262626232
:105DC000F078154D08B1E868A062307908B128690B
:105DD00001E0A06A4008E062707908B1686903E0F8
:105DE000A06AC0EBC000C00820630869E061B07918
:105DF00030B1A86901F082FC20620120E07100E06E
:105E0000E271F079002803D0E86901F077FC606264
:105E100070BD0000A400002038B7002010B5104C61
:105E20002078A8B904F040FFA060B0B1417A4422C4
:105E300041F0200141720B4904F0F8FD4322094969
:105E4000A06804F04FFE00220749A06804F039FF63
:105E50002078401C2070002010BD4FF0FF3010BD96
:105E60009800002030B90008FD620008426A002A4C
:105E700013D05179002304290CD004DC00290CD064
:105E8000032904D106E0052904D00A2902D0937120
:105E9000FFF702BF937100F0B1B970470A54401C7C
:105EA00080B20B54401C80B270470A54401C80B230
:105EB0007047130E0B54401C80B2130C0B54401C43
:105EC00080B2130A0B54401C80B20A54401C80B2AA
:105ED0007047130A0B54401C80B20A54401C80B215
:105EE000704730B4FF230B54401C83B2002402E0FF
:105EF000CC545B1C9BB2442BFAD3F03330BC99B228
:105F0000104602F0BEB800002DE9F34F85B0002026
:105F1000824903900190C8600861059840892C2847
:105F200070D305984FF0F0080089059F06E0A8EBB4
:105F30000102401A3F681FFA82F880B2002F61D038
:105F4000798942464145F2D916468246ACE0B01CFA
:105F50001FFA80F94FF0FF34B14553D37B89721C8F
:105F6000934203D90BEB0600407803E0386808B190
:105F7000406800783429054630D007DCF1B10129AA
:105F80001FD0032921D0332908D123E035292CD073
:105F900036292ED03A2930D03B2935D0002581B37F
:105FA0003044801CB0F5803F2CD286B25DB3002017
:105FB00000905A480C30005D60B368E00020054650
:105FC000EDE7042874D10624E9E7042504286FD3FB
:105FD0000724E4E704286BD10324E0E7012867D114
:105FE000B8F1F00F64D10024D9E7012860D1012471
:105FF000D5E704285CD10224D1E7042858D1042431
:10600000CDE705E059E042E0042851D10524C6E778
:1060100096B23CE0042D01D2284600E0042002465E
:1060200002904B466946384601F0BCFF0146029893
:10603000814242D1042D16D9A80739D13749012010
:106040000C310855009801F059FB014634482D1FCA
:10605000EDB240F8241009F1040080B248452CD379
:106060008146641CA5E7042D02D0012D20D103E058
:10607000009801F043FB01E09DF8000000902749E3
:1060800001200C3108552648009940F824107889E1
:10609000B04215D8311AAAEB00008EB21FFA80FA6E
:1060A00056450AD23F6817B1D7F804B009E0FFE7B8
:1060B0006FF0050007B0BDE8F08F6FF00100F9E761
:1060C00037B1564504D21BF80610FF297FF43FAFC5
:1060D00012490C31087860B11148002200680A703A
:1060E000012808D0022802D003280AD001E00120AC
:1060F0000190039840B1002003904FF06C08EC2011
:1061000013E701200190F6E701980028D2D0002083
:1061100001904FF02C086C2007E700009800002049
:1061200038B700202DE9FC47456A07460421284678
:1061300000F0E2FA01AB032229463846FFF7E6FCFD
:1061400006003BD071680223F031894639224C4663
:10615000BDF80400FFF7A2FEADF80400BA8D214699
:10616000FFF7B7FEADF80400032337222146FFF7FF
:1061700095FEDFF88080ADF804000024494618F849
:106180000420BDF80400FFF790FE641CE4B2ADF8F3
:106190000400032CF2D33246494680B2FFF7A1FE39
:1061A00014480097401E4323134A3146806804F088
:1061B000A7FD0446304601F028FF01E04FF0FF3410
:1061C000A879FF2801D2401CA871C0B20A2804D2C5
:1061D0004FF47A7110FB01F001E042F2107080B2CE
:1061E0004FF4FA7100F2F310B0FBF1F02881204671
:1061F000BDE8FC879900002034B900082DE9FC4770
:10620000456A07460321284600F076FA01AB0322CF
:1062100029463846FFF77AFC06004ED07168022303
:10622000F031894639224C46BDF80400FFF736FEAE
:10623000ADF804004FF410722146FFF74AFEADF8A6
:106240000400042332222146FFF728FEADF80400A3
:10625000E86901F053FA02462146BDF80400FFF751
:1062600028FEADF80400032337222146FFF716FE6F
:10627000DFF88080ADF804000024494618F80420B7
:10628000BDF80400FFF711FE641CE4B2ADF8040091
:10629000032CF2D33246494680B2FFF722FE15485E
:1062A0000097401E4323144A3146806804F028FDBD
:1062B0000446304601F0A9FE01E04FF0FF34A87912
:1062C000FF2801D2401CA871C0B20A2804D24FF4A2
:1062D0007A7110FB01F001E042F2107080B24FF4CD
:1062E000FA7100F2F310B0FBF1F028812046BDE80E
:1062F000FC8700009900002034B900082DE9F04126
:106300004248516816464468656A002D79D028795C
:10631000002876D070892C2873D30878022870D191
:10632000002094F8342008E023180F1893F82E303A
:106330003F7FBB4265D1401CC0B2824201D90628D2
:10634000F2D3486801F0DAF92968884259D1294620
:106350003046FFF7D9FD08BB2D494878F0B12D4AEA
:1063600077681079052804D0062821D0022836D075
:1063700047E06879012806D0032814D0042812D0F9
:10638000052810D03DE039462046FFF713FD94F86C
:106390003500000703D52046FFF747FB31E02046D4
:1063A000FFF7D5FA2DE039462046FFF703FDF6E763
:1063B0006879032805D0012803D0042801D00528D6
:1063C0001FD10C21606A00F097F9134B20461A4642
:1063D000114601F051FC2046FFF75EFC11E06879A0
:1063E00006280ED12546646A887850B100202081A5
:1063F000906801F083F9A0613869E061284600F0F7
:10640000D7F83046BDE8F04101F0FFBD48B80020A4
:10641000A400002038B7002030B900082DE9FE4361
:10642000446A0746002C51D0607900284ED0A069FC
:1064300002900025A561E561256265622563E5623C
:10644000A562A58265822582E581384600F097F92C
:1064500060B301AB072221463846FFF757FB060021
:1064600024D071680423F03136228846BDF8040038
:10647000FFF714FDADF80400029801F03FF9024661
:106480004146BDF80400FFF714FDADF804003246A4
:106490004146FFF726FD0E480097432302AA3146E6
:1064A000806804F02DFC304601F0AFFD094B384602
:1064B0001A46114601F0E0FB0021204600F01CF9CD
:1064C0002079002802D0FFF789FB2571BDE8FE8303
:1064D0009800002030B900082DE9FC47456A0746BE
:1064E0000521284600F008F901AB03222946384669
:1064F000FFF70CFB06003CD071680223F03189469F
:1065000039224C46BDF80400FFF7C8FCADF8040082
:10651000BA8D2146FFF7DDFCADF8040003233722D6
:106520002146FFF7BBFCDFF88480ADF804000024AF
:10653000494618F80420BDF80400FFF7B6FC641CB7
:10654000E4B2ADF80400032CF2D33246494680B2DF
:10655000FFF7C7FC15480097401E432305F11802BA
:106560003146806804F0CCFB0446304601F04DFD16
:1065700001E04FF0FF34A879FF2801D2401CA87138
:10658000C0B20A2804D24FF4FA6110FB01F001E016
:1065900044F6206080B24FF4FA7100F2F310B0FBC1
:1065A000F1F028812046BDE8FC870000990000201A
:1065B0002DE9FE43060072D0756A002D73D00121CB
:1065C000284600F099F802AB032229463046FFF72F
:1065D0009DFA07006AD079680223F0318946392292
:1065E0004C46BDF80800FFF759FCADF80800B28D25
:1065F0002146FFF76EFCADF8080004233222214645
:10660000FFF74CFCADF80800E86901F077F80246A6
:106610002146BDF80800FFF74CFCADF80800042344
:1066200036222146FFF73AFCADF80800A86901F0D0
:1066300065F802462146BDF80800FFF73AFCADF8C0
:106640000800032337222146FFF728FCDFF89C804F
:10665000ADF808000024494618F80420BDF80800E9
:10666000FFF723FC641CE4B2ADF80800032CF2D35E
:106670003A46494680B2FFF734FC1D484323CDE932
:1066800000601A481B4A401E3946806804F056FBD9
:106690000446384601F0B9FC0AE000E003E06FF080
:1066A0000F00BDE8FE836FF00500FAE74FF0FF34FE
:1066B000A879FF2801D2401CA871C1B2062902D2D4
:1066C0000120884000E03C2000EB4001C1EBC010FD
:1066D0004FF6FF7101EAC0004FF4FA7100F2F310B7
:1066E000B0FBF1F028812046DBE700009900002094
:1066F00030B9000834B9000842798A4203D04171A8
:10670000002181710181704770B505006FF00F01A4
:1067100017D095F83500C00713D0A88D0E116C6AFC
:10672000B0F5107F0BD374B1207908B1FFF756FA9A
:1067300034212046FDF7C1FEFFF770FB50B1304613
:1067400070BD084670BD342001F0B4F80400F6D0E6
:106750006C62EDE70120207195F83500400705D403
:1067600002212046FFF7C8FF002070BD2846FFF732
:1067700093FA0028F9D02846FFF750FEDFE740B132
:10678000406A30B140790A2805D0052803D0042892
:1067900001D0002070470120704710B5426A0446BE
:1067A00051790C290BD0062909D001290BD00829D1
:1067B00018D0032926D19079022820461ED3BDE89F
:1067C0001040FFF769BA90790528204603D8BDE844
:1067D0001040FFF7EDBEFFF721FE2046BDE8104058
:1067E000FFF792BF90790128204603D8BDE81040FA
:1067F000FFF71BB9BDE81040FFF7A9B8BDE810408E
:10680000FFF7FCBC10BDC26812680A60C068016076
:106810007047C1680868002801D002680A607047A4
:1068200070B5094E0546002404EB440006EBC00099
:10683000017D29B18068A84202D1204600F07CF891
:10684000641C0A2CF0DB70BD58B700202DE9F74F0F
:106850000A27054600203E463C463B468346824684
:106860008146344A00EB400E02EBCE010A2C0A7D31
:1068700029D0C2B175B1D5F800C0D1F80480C445A3
:1068800008D1DDF808C0BCF1000F4FD0D1F8088066
:10689000E0454BD0012A1AD0022A04D3498A49453F
:1068A00001D306468946401C00B20A28D9DB01986C
:1068B0004FF0FF3180073BD40A2C17D024DB0A2E7F
:1068C00018DA34461DE0002AD4D10446EBE7194A11
:1068D000498A52F83E2022B15945E4D303468B46FB
:1068E000E1E75145DFD307468A46DCE70198C00758
:1068F0001ED0E4E70A2F01DA3C4602E00A2B17DA41
:106900001C46204600F018F835B10A4804EB440252
:1069100000EBC20029684160064804EB440200EB2A
:10692000C20000214182029981602046BDE8FE8FAD
:106930000846FBE758B7002070B50B4E00EB40044B
:10694000002556F8340018B101F05FFB46F83450CA
:1069500006EBC400054905754582856045600A68F7
:10696000C2608988018270BD58B7002096BA0008BD
:106970002DE9F04385B00D00074646D07C684FF402
:106980008078208840453DD1207906283AD1607929
:10699000042837D16088082834D121462846FEF7DC
:1069A000A8FED4F80E000490A169686818B181426D
:1069B00001D1012600E000260EB1012300E00223F0
:1069C00004F10802914604A9284600F0D9F9E088AC
:1069D000404503D0B0F5007F14D10FE096B10222FC
:1069E00004ABCDE90232291DCDE9001905F12E03D2
:1069F00019464A46284600F02FF903E004A9284624
:106A0000FEF796FF384601F000FB05B0BDE8F083C5
:106A1000FEB504460E4615462146106800F090FB70
:106A200008B1384B44E02868C0F303110E292AD07E
:106A3000A168636800EA01020B409A420DD080B25F
:106A40004FF6A961884208D07068808980B2884278
:106A500003D0E068B0B304F10C052B4B2B491A7836
:106A600002EB420001EBC000077D022F2ED38768A6
:106A7000A7422BD12F684068874227D13146204654
:106A800000F046F8FEBD01208DF8040000208DF8CE
:106A900005005E208DF80600687801AB00F07F00ED
:106AA0008DF80700A8788DF80800E8788DF80900BF
:106AB0004FF40060009004F12E023146204600F0B1
:106AC000F3F9FEBDFFE76FF00300FAE7002202EBE7
:106AD000420001EBC000077D022F08D38768A74260
:106AE00005D12F684068874201D11A70C6E7521C51
:106AF000D2B20A2AEBD332462946204600F038F8B3
:106B0000DFE7000090BA0008AC00002058B7002072
:106B10002DE9F84306468846144802EB420100EB93
:106B2000C10404F10C05207D022813D1608A0327DB
:106B3000B0F58E7F04D9211D304600F0DDF807E066
:106B4000B0F5877F06D32A46211D304600F0DAF8DB
:106B500000B927754FF4006000902B4606F12E0215
:106B60004146304600F0A0F9BDE8F88358B7002050
:106B70002DE9FC5F82462E3001900F4608681646CC
:106B80004FF0FF34514600F0DBFA80B93868C0F3AB
:106B900003110E290BD057B148B152460121384696
:106BA000FFF754FE002805DA40B2BDE8FC9F6FF005
:106BB0000F00FAE700F0FF09DFF894B009EB49088D
:106BC0000BEBC805287D08B126B10AE00120287525
:106BD000C5F808A03946504600F08EF80446002E4D
:106BE000E3D0287D5F4602280ED31A494FF4006097
:106BF00005F10C0381F80090009031465046019A4F
:106C000000F052F9044621E001281FD1002134464A
:106C1000207B400603D42468002CF9D139B13246D8
:106C20004FF420710E2001F067F9064602E030466D
:106C300001F050FA46B157F8380008B101F0E5F913
:106C400047F83860002401E04FF0FF342046ACE7FD
:106C500058B70020AC0000202DE9FF4F81B09346CB
:106C6000DDE90E6A984600274FF420721C210E20A1
:106C7000DDF8409001F098F8050038D06C68119864
:106C800000F03EFDE080D8F80010A160B8F80400E4
:106C9000A081DAF80010C4F81210BAF80400E082FB
:106CA0003068C4F80E00D9F80000A0614FF480707D
:106CB00020800820608006202071042060713088C8
:106CC00081B240F60600A1F57E42A93A00900CD0B0
:106CD0005B46DDE90102294600F0E6F8284601F0AE
:106CE00094F9384605B0BDE8F08F024BF1E74FF05C
:106CF000FF30F7E790BA0008014A00F003B800003F
:106D000090BA00087FB5064D031D0124CDE900357A
:106D1000CDE902142A331946FFF79EFF04B070BD77
:106D200096BA000870B5154D002404EB440005EB3D
:106D3000C002117DF1B1508A401C80B25082B0F582
:106D4000967F0AD2012906D003290AD004290AD045
:106D500001290BD00EE0052808D32046FFF7ECFDF3
:106D600008E0042000E00220107503E0111D906887
:106D7000FFF7C2FF641C0A2CD7DB70BD58B7002098
:106D8000F8B51F4615460E00044613D0306888B18A
:106D9000214600F0D5F968B93078C0F303100E2809
:106DA00008D0224639463046FFF750FD002804DA65
:106DB00040B2F8BD6FF00F00F8BD114A00EB400182
:106DC00002EBC1000223037584602B68C360AB88AB
:106DD00003820023438252F8316076B142F83130A9
:106DE0004FF4006000902B4604F12E0231462046FD
:106DF00000F05AF8304601F008F90020F8BD000014
:106E000058B700202DE9F041044640890E270D4671
:106E10000E283CD9E07B18B995F83800401CE07387
:106E2000606801788689CA0714D0012905D0062236
:106E30001C49FDF7A7FA48B10CE0417851B98078B8
:106E40005E2807D1607B40F0100002E0607B40F0DC
:106E500008006073082E03D0B6F5C16F17D10DE09E
:106E600095F83500000712D53946204601F038F96B
:106E700068B92946204600F07BF910E095F8350006
:106E8000000704D53946204601F02AF918B12046FA
:106E900001F0BBF803E029462046FFF769FD00201A
:106EA000BDE8F08190BA00082DE9F04180461E4609
:106EB00017460D46069800F023FC04460E2128468E
:106EC00000F04AFF18B16FF00100BDE8F08168687A
:106ED000848131680160B18881803968C0F806100A
:106EE000B988418140462946D8F81820BDE8F041CC
:106EF0001047000010B5732180F83610742180F817
:106F00003710074941610749816100F09FFA00226B
:106F100005494FF47A7001F045FC002010BD0000D7
:106F2000116A0008F1750008BD5600080A4D642179
:106F3000686804F0A3FA0128F9D1286800F0FCFA87
:106F40000400F4D029680A6990470028F5D020464B
:106F500001F05BF8EBE700005001002070B5064C33
:106F60000546C0B2A08040212046FEF710FB012854
:106F7000F9D1284670BD0000001001400A460321E7
:106F800000F082B82DE9FE4F3E4A04468A46D2F808
:106F9000088098F800000007860E142E6CD36089D4
:106FA000042869D360680178002965D0082963D175
:106FB000506902F11407C0F303110E295CD0914609
:106FC000116800F0BDF8002856D12089082853D355
:106FD000204600F090F848BB06F10E010D46204611
:106FE00000F0BAFE40B32089811989B2884243D8A3
:106FF0004FF420720E2000F0D7FE05003CD06989C6
:1070000006F1080081420ED3324641466868FDF71A
:10701000E5F93146284601F063F820B921462846B3
:1070200000F079FF18B1284600F0EFFF24E0204679
:1070300000F0EBFF2C4604E02946204601F050F812
:10704000D0B931462046656800F086FEA0B9606878
:107050003968FF22C160D9F8101001610021297040
:1070600069800272418101228DE806040A46FF23ED
:107070003946204600F05EF92046BDE8FE4F00F09C
:10708000C4BF000048B800202DE9FF47914688465C
:1070900006464FF420722421222000F085FE0500D0
:1070A00027D06C6877681C2284F8008084F80190EF
:1070B0004FF00008A4F80480A4F80680686871689E
:1070C0000830FDF78BF9F868039003A800F08EF9FB
:1070D00060B1A4F802800122CDF80080CDE9012042
:1070E000FF2303AA0021284600F024F9284600F0D7
:1070F0008CFFBDE8FF8770B500260546344612E0D8
:107100006989686800F00FFB2044010C11FA80F4D3
:10711000A87AC00706D08EB10026E0B2C4F30721DA
:1071200041EA00242D68002DEAD126B1E0B2C4F373
:10713000072141EA0024E04380B270BD0126ECE75C
:10714000421C12D088B191F8352092070BD54A68BD
:10715000824208D0896800EA01030A40934202D1C2
:107160000143491C01D000207047012070470000F6
:107170002DE9F047456880460E46287804214FF0F7
:10718000010AB1EB101F03D0404600F03EFFAEE015
:107190000007870E688800F0B3FA0446B8F80800C4
:1071A000A04203D92146404600F06BFFB8F80A0020
:1071B000B842E9D3B8F80800A042E5D3142FE3D3CE
:1071C000DFF830912869C9F81400EA68C0F30310A9
:1071D000C9F810200E2805D0304600F08FF850B1C5
:1071E000344616E096F83500C00702D070680028D3
:1071F000F6D1002412E099F8140000247F280DD065
:107200003D48046808E0B44205D0204600F076F816
:1072100008B11CB10AE02468002CF4D1687A112866
:1072200004D1E8194088B0F5884F32D0BAF1000F88
:107230000DD0D9F8100050B13146FFF781FF00287A
:10724000A2D199F81000C0F303100E289CD0002C96
:107250009AD0E88830F0C00096D1C9F80850C9E942
:107260000046297840460907890EA9F80C103946CE
:1072700000F036FF687A012817D0062810D01128B0
:1072800009D04D462146D9F81400FFF759FF88B1BF
:107290001DE03446DBE73146404603F04DFC19E083
:1072A0003146404601F0D0FD14E031464046FFF73C
:1072B00069FE0FE0287DC0F303100E2807D0394681
:1072C000404600F0C6FE02214046FFF757FE40460A
:1072D00000F09BFE0021C9F80010C9F80410C9F89D
:1072E0000810A9F80C10C9F81010C9F814100020E3
:1072F000BDE8F08748B80020F000002010B5044633
:1073000090F83500C00711D062687AB1084840692A
:10731000904209D02146FFF713FF28B904492046BF
:107320001431FEF7D9F908B1012010BD002010BDBD
:1073300048B80020FEB5DDE90954089E1AB109B12C
:107340000F6807B9211D0096CDE9015400F002F83D
:10735000FEBD00002DE9F84F1F46DDE90B9ADDF870
:1073600028B01600884605466FF0010429D0142184
:1073700000F0F2FC40BB6C68277284F8099030681A
:1073800020614520207084F801B0288900F0B8F908
:10739000144F60804FF00009A4F80690388800F080
:1073A000AFF9A0803888401C3880B8F1000F05D0B4
:1073B000D8F80000E060A4F80A900CE00A480068E1
:1073C000F8E76889142802D22046BDE8F88F68687B
:1073D0006E4600690090DAF814305046324629466D
:1073E0009847F2E7AE00002030B9000870B50546B6
:1073F000144813E090F83510CA070FD04A070DD58E
:1074000043685BB184682A68234002EA04069E420E
:1074100016D0890702D4C1688A4211D000680028BA
:10742000E8D10948006850B190F83510CA0706D075
:10743000490704D5416811B129787F2900D100207E
:1074400070BD0000F0000020F40000207CB5044670
:10745000062084F834000C2084F82E00222084F8C2
:107460002F00382084F83000302084F831000F20BD
:1074700084F83200542084F8330040F2DC50A085B8
:10748000254D0A2084F835002C60686878B90322FD
:107490000021012003F074FE686020B100231A4629
:1074A000194603F0C7FE0021686803F0E7FF04F106
:1074B0002E010020FDF760FB052218491848FDF752
:1074C0003BF9052217491848FDF7F2F8164D00243C
:1074D00005EB44100121FDF717F9641C052CF7D3C7
:1074E0000F4D00244FF4400605EB44103146FDF7E4
:1074F00047F9641C052CF7D300210420CDE90001D5
:107500000B464FF4AF7209A10A4804F073F8BDE8C6
:107510007C40FDF75BBC000050010020A020002053
:107520003C020020DC0200209C0100204574685FC2
:10753000696600002D6F00082DE9F04F85B000202E
:107540000446019002A8FDF75BF902AB93E807003F
:107550008946009260B381B24FF4C172002000F0FE
:1075600023FC019020B3009F054640F2F45BB5F880
:107570000A8000260DE0A4F2F4525242FCF72EFFDE
:10758000FF68D7F80890361BAAF2F458002406F2D8
:10759000F456686808EB040ADA4509EB0401304444
:1075A000E9D84246FCF71AFF2D684444002DDED18D
:1075B00000210D4B4FF00042009802E00260C068CD
:1075C000491C1C68A4688C42F8D8186800218160A6
:1075D00006484269120602D5802242618160019804
:1075E00005B0BDE8F08F00002C00002000900240A4
:1075F0002DE9F05F304D4FF000090E46A8684C466B
:1076000058B903220021012003F0BAFDA86020B17F
:1076100000231A46194603F00DFE2748FA21806818
:1076200003F02CFFF0B325480568D5F808A031E039
:107630002868002833DBB6F80A80002716E0A4F299
:10764000F4525242FCF7CAFEED682868002826DB97
:10765000D5F808A0A9EB04003F1B00F2F450ABF2F0
:10766000F4581FFA80F9002407F2F45708EB040BD2
:1076700040F2F45170688B4500EB07010AEB0400FF
:10768000DDD84246FCF7AAFE09EB08003668444400
:107690001FFA80F9002ECBD14846FDF70BFB0023E3
:1076A0001A4600E004E004481946806803F0C2FD71
:1076B0000020BDE8F09F00005001002024000020C1
:1076C00010B504464068804701F02FF8094A216848
:1076D00052688B181A1AB2F1004F03D3084422469D
:1076E000054902E0044922461846BDE8104001F071
:1076F00067B800003C010020C176000800BA70475E
:1077000040BA704710B500F0E9FF00F0B3F800F0A0
:10771000C9F900F09BFA03F00DFA01F093FBBDE804
:10772000104001F075B818B50022ADF8002010F037
:1077300001030BD0002909DD10F8014B8DF8014041
:10774000491E03E030F8024B891E22440129F9DC6E
:10775000002902DD00788DF80000BDF8000010441B
:10776000010C11FA80F0010C11FA80F023B1C1B2C2
:10777000C0F3072040EA012080B218BD1CB50A49B9
:107780004803FDF71FFD4FF4A060FDF711FD002138
:107790000120CDE900010B46C82204A1064803F0F0
:1077A00029FF03F079FCFEE7004000087461736B69
:1077B0005F696E69740000005D88000870B500FBA9
:1077C00001F4200C01D0002070BDA0B200F072F8CE
:1077D000050002D02146FCF74EFE284670BD000091
:1077E0002DE9F041002841D081073FD1204FA0F181
:1077F000080439688C4239D379680C30884235D80E
:10780000002107F1080000F02BFF2079F8B1204695
:1078100000F0C0F80546208800F07AFE0646608831
:1078200000F076FE014620884FF4A05300229842D3
:107830000DD8608898420AD8A84202D00888A84289
:1078400005D17868864208D07088A84205D0BDE886
:10785000F0410748083000F085BF2271F868844283
:1078600000D2FC60204600F053FCF0E7BDE8F08158
:10787000B000002070B50D480D4C20F003004FF40F
:10788000A05520600580002141800171284600F04C
:107890003FFE012160600171058045802068E06045
:1078A00004F10800BDE8704000F041BF63B800205B
:1078B000B00000202DE9F04700280ED0C51C4FF67F
:1078C000FC710D404FF4A0590C2D01D20C2501E0A4
:1078D0004D4501D8854202D20020BDE8F087002145
:1078E0002B4800F0BDFEDFF8A880A8F10808D8F802
:1078F0000C0000F04FF80646C5F5A05741E03046B1
:1079000000F006FE04460079B0BB2088801B0838D2
:10791000A84232D320880127811B05F114000839C1
:10792000814213D37019083085B2284600F0F0FD6B
:1079300000210171218801804680258027710088FF
:10794000484504D000F0E4FD458000E02771D8F8F8
:107950000C004546844203D008E0008800F0D8FDC2
:10796000017911B169688842F7D1E860084800F0F0
:10797000F9FE04F10800B0E7FFE7304600F0C8FD6B
:107980000688B742BBD8024800F0ECFEA4E700002E
:10799000B800002002490988401A80B270470000F0
:1079A000B00000202DE9F05F0746CC1C4FF6FC70BC
:1079B00004404FF4A05A0C2C01D20C2401E0544591
:1079C00016D88C4214D3304801688F4215D38146B3
:1079D0004068874211D2A7F108052846FFF7DAFF71
:1079E00029880646881B08381FFA80F8444503D9C1
:1079F0004FF00000BDE8F09F01D13846FAE7224879
:107A00004FF0000100F1080000F02AFE288800F085
:107A10007FFD01794FF0000B01B304F114004045E4
:107A200017D83019083084B2204600F071FDD9F81B
:107A30000C20904201D2C9F80C0080F804B02988CB
:107A4000018046802C800088504502D000F060FD07
:107A500044800D48083000F085FECEE7311908312A
:107A60008CB2D9F80C10B0F80080814204D12046C5
:107A700000F04EFDC9F80C00204600F049FD80F8EA
:107A800004B0A0F80080DCE7B00000200B2806D28C
:107A9000002904D0024A52F82000FEF7B4BE704715
:107AA000E8B9000830B5054D002455F8240000F071
:107AB00007F8641CA4B20B2CF7D330BDE8B900085A
:107AC000C268002111608168C91C21F003010022F5
:107AD00007E0C368521C1B680B60C3681960838889
:107AE0001944C3889342F4DC704700000B2801D38B
:107AF00000207047024951F82000FEF78ABE0000BE
:107B0000E8B900082DE9F0410400DDE90770069DA1
:107B100021D007B301B9234902B9224A03B9214B45
:107B200000266660A660DFF880C0C4F814C0E66076
:107B3000A68584F835606662A662C4E907651B4DB8
:107B400095F800C084F838C02061204600F094F811
:107B50002046B84710B10020BDE8F0816A6894F86B
:107B60003800FF2801D184F83860104694F83810A6
:107B70000AE090F838308B4205D1491C84F838105F
:107B80000028ECD102E000680028F2D1C8B2FE283B
:107B900005D0401C2870226020466C60DCE72E7007
:107BA000F9E7000030B90008717C0008EC00002003
:107BB00070B50C46054601F0F3FB21462846BDE8AA
:107BC000704003F057B80A68C3689A4204D001B9FC
:107BD0000022C260012070470020704738B505467A
:107BE0000C4608686968884210D0009011606946A8
:107BF0001046FFF7DDFF3CB1206868600121284690
:107C000000F025F8012038BD0020F6E7002038BD3F
:107C10000A6883689A4204D001B900228260012078
:107C2000704700207047000001000BD006484068F4
:107C300006E090F83820521CD2B28A4203D0006885
:107C40000028F6D100207047EC000020704790F823
:107C5000352053070BD5D30709D0C90707D0416892
:107C6000002904D0110702D5011DFFF745B8704760
:107C70006FF00B00704700002DE9F84F4FF000093E
:107C80001E4617460C008246C84600D1114C07B963
:107C9000104F06B90F4EDCB12068C8B1002525B1E0
:107CA0006A4621465046FFF799FF4A4639465046F4
:107CB000FFF7AEFF424631465046FFF784FF002DE6
:107CC00004D16A4621465046FFF788FFBDE8F88F89
:107CD0000125E4E730B900080149886070470000D9
:107CE000EC00002000280BD090F83510CA0707D010
:107CF00001F0FE0180F83510090701D5FEF790BDAF
:107D0000704710B5040018D094F83500410714D41A
:107D100040F0040084F835002046FEF7A7F820461E
:107D2000FDF71FFD03212046FFF791FFE1690029C0
:107D300003D02046BDE81040084710BD00280AD0F7
:107D400090F83510CA0706D141F0010180F83510CE
:107D50000321FFF77CBF70470022AFF3008030B5EE
:107D600000B3B1F5803F1DD281B104898BB214FA02
:107D700081F5ADB29D4215D3057B2D0608D542682D
:107D8000511A00F1100291420CD304E0002030BDE2
:107D900042B14268511A4160418919444181E11858
:107DA0000181F3E7012030BD2DE9FC5F06469146D5
:107DB0000D461046012A0AD0412808D04FF0000B8A
:107DC000B0F5C17F09D0B2F5207F56D134E002462C
:107DD000002000F054F807464CE00027B8460A207F
:107DE000FFF784FE040020D0F01C20F00300C0F553
:107DF000FA7080B2A84200D928468246A0191330F2
:107E0000CDE9009B20F0030153462A46204600F0AE
:107E10002AF97FB1C8F80040A5EB0A000504A04686
:107E20002D0C4FF00006DAD124E037B3384600F0CD
:107E3000ECF822E02746EFE7F01C20F00302E81CF4
:107E400020F00301501882B202F1100080B291427A
:107E500013D8814211D8FFF72DFD071E0BD0B8199A
:107E60001330CDE9009B20F003012B461A4638461B
:107E700000F0F9F83846BDE8FC9F0020FBE72DE94B
:107E8000FC41074615460E460920FFF72FFE040069
:107E90004FF0000008D0CDE9005033461A4639466D
:107EA000204600F0E0F82046BDE8FC8110B500282F
:107EB0000FD000290DD004E003890C8923440381ED
:107EC00010460268002AF7D102890B891A44028100
:107ED000016010BD10B50C46FFF7E8FF2046BDE875
:107EE000104000F0F7B8002102E0491C006889B298
:107EF0000028FAD10846704770B515460A46298908
:107F0000FFF752FF040004D0294600F004F8204691
:107F100070BD002070BD2DE9F0474FF000070C4602
:107F200005003E466FF00F092CD05CB328892189EB
:107F3000884227D36FF0050A68896189C01B891BB5
:107F4000884201D3884600E0804660684246811935
:107F500068683844FCF742FA608946444744B042B6
:107F600001D8246800266889B84202D12D6800270C
:107F70003DB154B160892189884206D1206858B941
:107F800003E06CB14846BDE8F0873DB168892989B6
:107F9000884203D1286808B15046F4E7002CCBD1C1
:107FA0000020F0E72DE9F047002716468946B8463D
:107FB000002805D0B9F1000F01D0044620E00020D0
:107FC000BDE8F0872BB16089984202D8181A83B2B5
:107FD00015E06089C01A85B2B54200D9354660689F
:107FE0002A46C11809EB0700FCF7F8F908EB050071
:107FF0001FFA80F8781987B2701B86B200232468B4
:108000000EB1002CDED14046DAE770B500281FD053
:108010000024817B491E11F0FF01817317D1017B80
:10802000056801F00F01022903D0012904D041B1F4
:1080300009E001460A2001E001460920FFF726FD7C
:1080400001E0FFF7CDFB641CE4B22800E1D120463B
:1080500070BD0122AFF30080002902DA494200F02E
:108060003FB8FFF77CBE70B50024DDE90456C0E9D7
:108070000041028143810573467301218173C473FA
:1080800070BD70B502898A4223D9521A92B20D4648
:10809000044605E0281A85B22089801A20812468C8
:1080A0006089A842F6D3207B00070AD16089A842E4
:1080B00007D0A088001B284481B22046FFF772FC3D
:1080C000044665812581206808B1FFF79EFF0020E6
:1080D000206070BD002802D0817B491C81737047ED
:1080E00010B538B1B1F5803F04D229B143898AB2C5
:1080F000934203D2012010BD002010BD44682144EA
:108100004160991A41810189891A0181F4E70000CF
:108110002DE9F0410446008800F0FAF905461A4EB0
:108120004FF4A058AC4215D0287998B970688542B0
:1081300010D0F068A84200D1F460288820802888F8
:10814000404507D02046FFF725FC0746288800F069
:10815000DFF94780608800F0DBF9A04212D0017996
:1081600000290FD1F168A14200D1F060218801807F
:108170002188414506D0FFF70DFC0546208800F018
:10818000C7F94580BDE8F081B00000202DE9F0413D
:10819000184E0F460446F5683068001D02F02FFEA9
:1081A00038B9306890F82C1001208840316981433B
:1081B0003161601C07D137B13168BDE8F0410E482C
:1081C000091D02F055BE30682C44AC424460316851
:1081D00005D2B06BBDE8F041091D02F031BE706BF5
:1081E000091D02F02DFEB06A844200D2B462BDE8DF
:1081F000F081000030000020243F00202DE9F041F4
:10820000054602F041FE2E4EB068401CB06030685A
:108210002C4F10B1706940B32DE03560B068012873
:1082200029D1002404EB840007EB800002F0FAFD62
:10823000641C052CF6D32348643002F0F3FD21487A
:10824000783002F0EFFD1F488C3002F0EBFD1D4846
:10825000A03002F0E7FD1B48B43002F0E3FD1948FE
:10826000643070631430B06305E03068E96AC06A56
:10827000884200D83560706A0121401C70626864D1
:10828000E86A326981401143316100EB800007EBFD
:108290008000291D02F0ECFD02F004FE7069002848
:1082A0000CD03068E96AC06A884207D206494FF0AC
:1082B00080500860BFF34F8FBFF36F8FBDE8F08130
:1082C00030000020703E002004ED00E030B4026C6D
:1082D0000B46002A0BD0C1681144C1604468A1421A
:1082E00001D30168C16030BC1846FCF777B830BCD8
:1082F00070472DE9F041856B174604460026026C55
:1083000082B1C7B1E068FCF769F8E168206C091A2E
:10831000E1602268914202D26168081AE060022F8F
:1083200016D017E02068A8B9606803F0EFF9064698
:10833000002060600EE0A068FCF750F8216CA06897
:108340000844A0606168884204D32068A06001E00E
:1083500005B16D1E6D1CA5633046BDE8F08110B5FA
:108360000446006B02F0A8FD2046BDE8104002F074
:10837000A3BD0000134E144DA6F1A0074FF0805886
:10838000DFF8489011E002F07FFDF068C468201D1E
:1083900002F035FDA868401EA8606868401E68604D
:1083A00002F080FD2046FFF7DAFF68680028EAD176
:1083B00038680128F9D9C9F80080BFF34F8FBFF39F
:1083C0006F8FF2E7103F00203000002004ED00E046
:1083D0002DE9F0470E46DDE90984174682469100F3
:1083E0009946089DA522206BFCF73DF86FF003012C
:1083F000206B01EB8701084420F0070700202218BA
:10840000315C82F83410315C11B1401C1028F6D375
:10841000002684F84360052D00D30425E562C4E9F5
:108420001356201D02F009FD04F1180002F005FDAD
:108430002461C5F105006462A061666584F8586036
:108440004A465146384600F0CFF82060B8F1000F98
:1084500001D0C8F80040BDE8F08710B5044602F02E
:1084600013FDA06B20B1002402F01CFD204610BDBE
:108470000124F9E70648416B096829B1416BC968D5
:10848000C9684968816270474FF0FF31FAE7000020
:1084900030000020BF2080F31188BFF34F8FBFF35F
:1084A0006F8FFEE72DE9F041044602F0EDFC94F9F0
:1084B000455004F1240609E0606A48B1304603F0F3
:1084C000A7F908B102F08EFD6D1E6DB2002DF3DC30
:1084D0004FF0FF3684F8456002F0E4FC02F0D4FC73
:1084E00094F9445004F1100709E0206948B1384676
:1084F00003F08EF908B102F075FD6D1E6DB2002D0E
:10850000F3DC84F84460BDE8F04102F0CBBC00002D
:108510000149096808447047B00000202DE9F04186
:108520000446002502F0E2FD274E06F108017068BE
:1085300001F1080368B92548002720F00700C1E9C8
:10854000000747F2F872C3E90072C0E90032012067
:1085500070603CB10834600704D004F00700C0F13B
:1085600008000444601E47F2F772904227D2164A70
:108570000968083201E00A4601464868A04202D272
:1085800008680028F7D1994219D01568086810606A
:1085900048680835001B10280DD90B1958600A4887
:1085A0004C6008305C6800E0104602685768A742DB
:1085B000FAD31A60036048683168081A306003F023
:1085C00059F92846BDE8F0816C000020403F0020AA
:1085D0000449086818B10868026D521C02650868F1
:1085E000704700003000002010B5031F4FF080746A
:1085F0001C601B1F21F001011960191F044B0B6047
:1086000014390A60091F6FF0020244380A6010BD75
:10861000958400082DE9F84390460D46064603F080
:1086200015F8044605B96D464FF0FF37B8F1000F55
:108630000BD042462946306802F0A8FE01280BD034
:10864000002028603846BDE8F8833A46294630685D
:1086500002F09CFE0128F8D102F0F8FF001BF2E7BF
:108660002DE9F0410F46054602F0F0FF04464FF0B9
:10867000FF3647B13946286802F000FF012808D0CC
:108680003046BDE8F0813146286802F0F7FE012847
:10869000F9D102F0DBFF001BF3E700002DE9F04108
:1086A00000F043F80C4F05464FF0004839680029A8
:1086B00010D048682A1A42450CD20A683A60D1E9BB
:1086C000024678600820FFF7E1F9002CEED0304632
:1086D000A047EBE7BDE8F0813C0100200149002004
:1086E000088070475C01002010B504460022042178
:1086F000062002F045FD206008B1002010BD4FF0BB
:10870000FF3010BD13B5002300681A4601A902F01E
:1087100091FD012802D04FF0FF301CBD00201CBD90
:108720000068002800D00120704702F08FBF70B5AC
:108730000C46054603220021012002F021FD28609D
:1087400040B100231A46194602F074FD286808B1AA
:108750001CB105E04FF0FF3070BD012102F08EFE2C
:10876000002070BD002300681A46194602F062BD61
:10877000FEB50C460A49064608980988154606299A
:108780000AD202A9CDE900019AB22B463146204611
:1087900002F030FF012801D00020FEBD0298FEBD8E
:1087A0005C01002070B515460E460446FFF7BDFF7C
:1087B00020442A463146BDE8704000F001B8000070
:1087C00070B5044615460E460820FFF78FF90028BD
:1087D0000ED00021C5600D4A80E85200116831B109
:1087E0004B68E51A4FF000439D420AD301601060C8
:1087F00070BD5568651B9D4202D30260086070BD64
:1088000011460A68002AF8D0F3E700003C01002076
:1088100070B5064D012405EBC40255F83400044937
:10882000FFF7C0FF641C052CF5D370BD68BA0008C3
:10883000C176000810B5084C206848B1FFF775FFF5
:1088400021684968081AB0F1004F00D3002010BD1C
:108850004FF0FF3010BD00003C010020FCF768FD28
:108860004FF4E130FCF712FE05A0FBF77FFDFBF7AC
:10887000F7FEFCF733FC002002F060FBFBE7000092
:1088800074686973206973206170706C69636174C6
:10889000696F6E002DE9FE4F0A4604005BD0207D13
:1088A0000A2837D00025DFF8B480D4F850B0D4F8C7
:1088B00024A0D4F81090D4F88C702E46A0B315469E
:1088C000E68A214608F1180000F0CCFF012188F863
:1088D0000010206F08B101F0D7FCE06E08B101F084
:1088E000D3FC55B1208B211DCDE900162346029003
:1088F00052465946184601F093FC204600F05AFAB9
:10890000002F28D003B04846BC46BDE8F04F6FF0BA
:108910000C016047114821461C3000F0A3FF20469F
:10892000BDE8FE4F00F046BAE08A0028D1D0D8F862
:108930001000A0420AD1C068C8F8100008E0C16861
:10894000A14202D1E168C16002E008460028F6D1E8
:108950000020E060BDE7BDE8FE8F0000F8000020C9
:108960000121FFF797BF00002DE9F04105460120E6
:10897000FFF7BCF8434E04005AD1B06909E0418BBF
:10898000C4680A0704D521F00801418300F012F9F8
:1089900020460028F3D100221346F468F06906E06F
:1089A000016A611A914201D30A460346C068002851
:1089B000F6D113B11846FFF7D3FF0120FFF796F861
:1089C000040035D1092000F049FC0120FFF78EF8A2
:1089D00004002DD1082000F041FC0120FFF786F8AB
:1089E000040025D128467F2D00D97F20D8B1401E14
:1089F000C3B200242246F768B0690EE0417D994277
:108A000006D309D1D0F820C0A7EB0C0CA44503D3A2
:108A1000026A0B46BC1A0246C0680028EED112B1A9
:108A20001046FFF79DFF0120FFF760F8040025D0F6
:108A30009821FBF742FD657541F68441A4F8641066
:108A400040F6683060852085FF20E0724FF40670A4
:108A500060860620A4F84000E087C01F2086012021
:108A6000A4F84800F0682062B078A077A4F84A1013
:108A70000548C4F880000548C4F890002046BDE8C9
:108A8000F0810000F800002049A0000800DD6D0022
:108A900048B1017D012903D0418B41F01001418390
:108AA000012100F003B86FF00F007047FEB50446D7
:108AB0000127007D3C4E002581B3042801D0072802
:108AC00031D1616F21B9218DA1F53062683A2AD088
:108AD000228BE18A201D8DE8070023461846626A32
:108AE000216D01F09DFB204600F09EFEB069A04282
:108AF00009D1C068B06108E0C168A14202D1E16853
:108B0000C16002E008460028F6D12848E5603770C9
:108B10000068A04203D101F04DFE3CE003E0204696
:108B200000F048F937E040B101281AD0022834D0CB
:108B30002046BDE8FE4000F03DB8E08A0028EED0B7
:108B40003069A04209D1C068306108E0C168A14223
:108B500002D1E168C16002E008460028F6D1E56074
:108B6000DDE7134B0121224653F82100006804E0A1
:108B7000866F964200D18567C0680028F8D1491CED
:108B80000429F0D308481146143000F06BFE21464A
:108B90000220FEF77BFF0020FEBD0348214618306F
:108BA00000F060FE3770BAE7F800002038010020BE
:108BB00058BA000870B50546007D0526032804D084
:108BC000042802D0072816D106E0284601F088FBC9
:108BD000040006D12E7509E0284601F081FB04004F
:108BE00002D0601C09D004E009202875284600F056
:108BF0001BFC204670BD002070BD688B40F0080053
:108C00006883F8E72DE9F0470746DDF820809A46AB
:108C100091460E465FEAC87001D0042500E00025A9
:108C20000320FEF763FF040015D084F80C804FF09A
:108C30000008C4E9008631893046491B2181A4F827
:108C40000A801421FFF788F848B1204601F00EFB96
:108C50000020BDE8F0873046FFF7D7F9F8E76068F5
:108C600040682061F88AFEF74BFD21690880388B47
:108C7000FEF746FD216948805046FEF73FFD216919
:108C80004860A808000300F5A04040EA0900FEF78C
:108C900037FD2169888121692046A1F81280D8E733
:108CA00000290BD0898D002908D0282902D928391C
:108CB00089B200E00021884200D308467047F8B529
:108CC000044600270D46880700D50127F80701D084
:108CD000042100E000214FF420723620FFF764F8F1
:108CE0004FF0FF3658B1009701462A462046E36D03
:108CF000FFF788FF020002D0E06E30B108E0608B21
:108D000040F0800060833046F8BDE26604E008462B
:108D100001680029FBD102600020A4F86800A807C0
:108D200002D0E06D401CE065E80703D0608B40F0A6
:108D3000200060835068FFF7D6F834F8661F0844B7
:108D400020800020F8BD000070B5194EB078401C9E
:108D5000B070B46928E0A17FB078814223D0A077B9
:108D6000608BC10709D040F002006083204600F00C
:108D70005BFB608B20F00300608380B2010705D5A8
:108D800020F0080060832046FFF714FFE568606F5D
:108D900038B100203070204600F04EFF30780028B7
:108DA000D7D12C4600E0E468002CD4D170BD00007F
:108DB000F800002001460120FEF768BE2DE9F041D1
:108DC0000C460646144F10E02546D5E90040FFF753
:108DD0008AF8B6F86610081AA6F866002889398954
:108DE00008443881284601F041FA94B1206940686E
:108DF000FEF784FC054620698089FEF781FC800728
:108E000000D00120218928440844B969401A00286B
:108E1000DADD2046BDE8F08118010020084BD88833
:108E2000411CD9801A6912B19988884203D2D96845
:108E30001431085C7047401AC0B2105C70470000E3
:108E400018010020704700002DE9FE4FE04F054655
:108E50004068F860688914287AD3DE4E31687069FA
:108E6000FEF76EF9002873D1307DC0F303100E2891
:108E70006ED0F8688089FEF743FC000B810014294E
:108E8000EAD328898842E7D3A1F1140080B2788020
:108E900000223A616A898A4204D3B8802846FFF7E3
:108EA0001FF917E014212846FFF71AF96989B980DC
:108EB0007888401A84B22846FFF712F92868418959
:108EC000A142C9D3416839612146FFF709F92889D0
:108ED000001B2881F8680088FEF712FC0146F8683C
:108EE00001804088FEF70CFC0146F868418040682C
:108EF000FEF704FC0146F868416079618068FEF77E
:108F0000FDFB0146F8688160B961C089FEF7F8FB96
:108F10000146F868C1818089FEF7F2FB00F03F014D
:108F200039708A4628897881890704D0411C89B222
:108F3000798188420CD8DFF8A0E2B946F968DEF8FA
:108F400000400020A346D6F810C07368776925E07A
:108F500038E1227A3AB193F8388008F1010808F034
:108F6000FF08424518D1228BB1F80080424513D149
:108F7000E28AB1F8028042450ED1626862450BD1A7
:108F80002268BA4208D128B1E268C260C4F80CB0C5
:108F9000CEF8004024B158E02046E468002CD8D137
:108FA0008E487768D6E9042604684B461EE0207A8E
:108FB00038B197F838C00CF1010C0CF0FF0C60458B
:108FC00013D1208BB1F800C060450ED1E08AB1F812
:108FD00002C0604509D16068904206D12068B04265
:108FE00003D1204601F0A2FBECE0E468002CDED1C6
:108FF000DFF8ECB10022DBF80000844615E0037ACC
:109000003BB197F8388008F1010808F0FF084345A4
:1090100009D1C38AB1F80280434504D10368B34241
:1090200006D080B12BB10246C0680028E7D10AE023
:1090300048B12AB1C168D160C0F80CC0CBF80000BB
:1090400000F02AF9BEE0002C7DD0DFF898810027DF
:109050004E46C8F800702A89A8F80820C8F80450BD
:10906000C8F81010C9F81C7089F80170A9F80870C8
:109070005FEA0A7003D5687B40F001006873606F97
:1090800070B1204600F0D8FD0D3003D0606F38B1CC
:10909000708928B1608DA0BB204601F0FEF86EE01B
:1090A0002046346200F006FC0D3068D0707800076E
:1090B0000ED5D4F88C201AB16FF00D0120699047BD
:1090C0002146454800F0CEFB2046FFF773FE56E0F0
:1090D000328900203AB1E36F13B1214620699847E5
:1090E0000D304CD03781204600F07EF848B9F06949
:1090F000F8B1A17EC90605D5FEF787FF2046FFF728
:109100002FFC3CE0D4F880503DB1D4F810C00246AA
:10911000002321466046A84705E000230246214679
:10912000184600F091FF10F10D0F28D008B1F0693A
:109130006067707880061AD5606F28B1417B41F076
:109140002001417313E026E0208DA0F530616839DD
:1091500001D0401C2085D4F880502DB100231A4640
:1091600021462069A84700E000200D3007D02046A6
:10917000376200F039F810B9204600F055F937622F
:10918000F761D8F804004446002802D0FEF73DFFFE
:109190006760BDE8FE8F4C468889FEF7B1FA40074C
:1091A00010D4E0680B4A0B4B0188408810320092C3
:1091B000CDE9010161896069143342180020A16979
:1091C00001F02EF82846BDE8FE4FFEF71EBF000056
:1091D0001801002048B800201001002014010020D0
:1091E0000C0100205006012010B504460C484078C0
:1091F000C00612D5A07EC00606D4D4F88C201AB1C1
:109200006FF00E01206990472146064800F02AFBC6
:109210002046FFF7CFFD012010BD002010BD00004B
:10922000180100201001002070B50446006D0025D3
:10923000401EFEF763FA034600222946204600F04E
:10924000F1F9010006D02246231DBDE8704010460A
:1092500000F032BA4FF0FF3070BD000030B40D495D
:109260000546002318468A69CC6809E0117DA942A9
:1092700005D1116A611A994201D30B461046D26892
:10928000002AF3D1002803D030BC0021FFF702BB35
:1092900030BC7047F8000020FEB53D4E05463078E2
:1092A000410711D4C10610D5F0683A4A394B0188FC
:1092B00040880092CDE90101718970691B1D421837
:1092C0002846B16900F0ACFFFEBD8007FCD5687D83
:1092D000FFF74AFB04004AD02E481038416921604C
:1092E00000696060E88AE082F068008820830320DB
:1092F00020757069401C6062E062204600F08CF8C6
:10930000A06520656064E0657069401E606528693D
:10931000A5672061687A00F00C006072287A2072DC
:109320001D480168E160046001F0E6F91B49012075
:109330000870204600F03EFAF068C089A4F860008A
:10934000A4F86200201DFEF751F80146608E221D30
:10935000FFF7A6FC608612212046FFF7B0FC88B11B
:1093600003B02046BDE8F0400021FFF793BAAB6997
:10937000002BA9D0286903B04FF0FF32BDE8F040C0
:10938000002118472046BDE8FE4000F04DB800001F
:109390001801002058B8002010010020F80000201B
:1093A00070B50C4605001DD0286800281AD00E4E56
:1093B0002846B16900F01AF82846316900F016F81D
:1093C000002C0FD0206800280CD006F11400026891
:1093D00006E010682968884201D120681060D268D0
:1093E000002AF6D170BD0000F800002070B50446D8
:1093F00008464FF6A9650CE001682268914207D142
:1094000089B2A94204D0C668FFF7AAFA304600E044
:10941000C0680028F0D170BD0249D1E902021044B1
:1094200088607047F80000202DE9F05F04467C4812
:109430000068A04202D10020BDE8F09FB4F86000AF
:10944000B4F84810884200D30846E56E81466DB1F5
:109450002146221D084600F0DBFE5FEA000A6FF09D
:1094600003012ED054B1206840B10CE0A07E8007EB
:109470007ED52046BDE8F05F00F00FBF1AF1040072
:109480001FD00068206028694068FEF737F9616CDA
:10949000401A2989421800204A4514D9B4F860209E
:1094A0004A45E3D1216F0029E0D194F895100029B5
:1094B000DCD184F89400012184F8951084F896009A
:1094C000D4E70846B8E784F89500266F83460EB9BE
:1094D00092E0064630680028FBD18CE0286980893C
:1094E000FEF70EF9206FA8B1618B11F0440F11D176
:1094F000E06E28B102686AB90089628E904209D292
:10950000B4F8640030B1B4F86600142802D211F047
:10951000A00F7CD0207D022807D01020FEF7F0F8A5
:109520000146286982891143818152462146284695
:1095300000F0E4F820B1618B41F0800161837BE7AA
:10954000A5F80AB02868E066207D022803D0608B69
:1095500020F00300608328694068FEF7CFF80746D3
:1095600028698089FEF7CCF8800700D0012000E050
:1095700051E0298938440844216D091A00D5206535
:1095800028698089FEF7BCF8800700D0012029896E
:10959000C8422CD0C5F800B0206F68B12869406877
:1095A000FEF7ACF8074630694068FEF7A7F8381AAE
:1095B0001AD504F1700003E0256716E0D8F8000022
:1095C0008046006850B100694068FEF797F807468A
:1095D00028694068FEF792F8381AEFD4D8F80000EE
:1095E0002860C8F8005005E035602E4602E02846A5
:1095F00000F03CFEE56E55B128694068FEF77EF844
:10960000616C401A2989014449457FF667AFE06ED5
:1096100008B9A4F868B0608B20F0800060830AE786
:10962000380100202DE9FF410446478D058BC08A93
:1096300010268DE8E100606A00F009F8002803D0E8
:10964000628D616A1144E16204B0BDE8F0812DE9E8
:10965000F05F834688180E46DDE90B98143081B21E
:109660001F464FF420722220DDF828A0FEF79CFB55
:1096700005001ED050466C68FEF742F82080484630
:10968000FEF73EF8608067605846FEF737F8A06046
:10969000B008000300F5A04080B240EA0800FEF7E1
:1096A0002FF8A0810D98FEF72BF8E0810020208292
:1096B00060822846BDE8F09FFEB516460F461D465F
:1096C00004461A46314600F0A3FD18B12CB1E37AE6
:1096D000A17A04E06FF003040BE0FF230021009166
:1096E0000622CDE901202A4631463846FDF722FE02
:1096F00004463846FEF789FC2046FEBDFEB51746F7
:109700000C46054600F04EF808B10020FEBD606A28
:10971000FDF7F4FF29698860608DFDF7F1FF296985
:10972000C881618D606A0844E0622E69287B143626
:10973000C0070AD0221D394640F2B450FFF7B0FAF4
:1097400040F00170FDF7DAFF3060B4F93000002618
:10975000002800DA2686606B38B91148006860631B
:1097600028694068FDF7CAFFA0636968288A8A886B
:10977000801A4A89121A4A8169680A89101A08816E
:1097800069682869221D4860286906210682A07A36
:109790008DE88300E37A21466868FDF7CBFDFEBDC6
:1097A000040100204068807B012801D0012070471F
:1097B000002070472DE9F0411A4E054670880028B8
:1097C00018D00020F08040F2B4570FE0FFF726FBDE
:1097D00000280FD0012809D002280DD0FFF71EFB6A
:1097E000022807D3F1880844801EF080F088718831
:1097F0008842EBD3BDE8F081FFF710FB0428F9D1D4
:10980000F0887188801C8842F4D8FFF707FB0402B7
:10981000FFF704FB2043B84200D800B938466886F9
:10982000E4E700001801002070B5040019D0207D85
:10983000002816D00A2814D0012812D0606F002505
:1098400010B1FEF7E2FB65674FF0FF302086E06E57
:1098500000F01AFD206F00F017FDE5662567A4F8FB
:10986000685070BD70B50C4601460068A04209D131
:10987000C068086008E0C168A14202D1E168C16027
:1098800002E008460028F6D100252046E560FFF7F3
:10989000CBFF207D0A280AD0012808D0608BC107A1
:1098A00005D040F0020060832046FFF7BDFD25751E
:1098B000E58270BD2DE9FE4F0446D94F002000908F
:1098C0003878410722D5207D02280FD0616A786957
:1098D00081420FD0421A08D4228D1144401A002828
:1098E00003DC608B40F00200608397E1216DB86972
:1098F0008142FAD1787840F008007870608B20F0CF
:10990000010060836FF00D00BDE8FE8F800704D575
:10991000207D022801D00328E3D1A07EC00602D416
:10992000C048006820624FF0000884F8978084F8EF
:1099300096802046FFF73EFFBB4B217D03F11000D0
:109940000422DFF8E8A2BA4EBA4D891E14334FF054
:1099500001094FF00A0B0829C7D2DFE801F00475AE
:10996000D4D8F1D4F0EF3978CD06BED5890755D5D6
:10997000656CB9696D1C8D4250D178690346401CF5
:1099800060626164E062F8685B1EC089A4F86000F0
:10999000A4F8620063652275201DFDF727FD0146CE
:1099A000608E221DFFF77CF941F21C116086B1EB3D
:1099B000400F01D2420000E00A46B2EB800F01D90D
:1099C000810003E0B1EB400F00D24100A4F8481041
:1099D000B4F86600401EA4F86600206FA0B10168CC
:1099E000216700F043FC206F90B1A4F8308084F828
:1099F0004280D4F884307BB1002221462069984708
:109A000000900D3041D06CE7E06E0168E166E8E758
:109A10004FF0FF302086ECE70098F2E7F9680A88FB
:109A200049888DE807007989786942182046B96924
:109A300000F0F6FB94F8420006288DD2A4F830809E
:109A4000204600F098FBE9E03978CD0650D5656CEA
:109A5000B9694D1B012D3FD4256D4D1B002D3BDCFD
:109A60002275A06F38B1836943B100222146206975
:109A7000984728B90CE06FF0050001E06FF00F0087
:109A80000D3002D02046FEF76BFF6FF00C003BE775
:109A9000204600F00DF9388908B1401E3881608EEB
:109AA00041F21C11B1EB400F01D2420000E00A4626
:109AB000B2EB800F01D9810003E0B1EB400F00D27F
:109AC0004100A4F848107878800610D5608B40F0EB
:109AD00002006083072054E0FA68158852888DE8F8
