:020000040800F2
:10000000800600202902000831020008330200089F
:10001000350200083702000839020008000000001D
:100020000000000000000000000000003B0200088B
:100030003D020008000000003F02000841020008E5
:10004000430200084302000843020008430200087C
:10005000430200084302000843020008430200086C
:10006000430200084302000843020008430200085C
:10007000430200084302000843020008430200084C
:10008000430200084302000843020008430200083C
:10009000430200084302000843020008430200082C
:1000A000430200084302000843020008430200081C
:1000B000430200084302000843020008430200080C
:1000C00043020008430200084302000843020008FC
:1000D00043020008B9060008430200084302000872
:1000E00043020008430200084302000843020008DC
:1000F00043020008430200084302000843020008CC
:1001000043020008430200084302000843020008BB
:1001100043020008430200086D060008430200087D
:10012000430200084302000843020008430200089B
:10013000430200084302000843020008430200088B
:10014000430200084302000843020008430200087B
:10015000430200084302000843020008430200086B
:10016000430200084302000843020008430200085B
:10017000430200084302000843020008430200084B
:10018000430200084302000800F002F800F03CF8C7
:100190000AA090E8000C82448344AAF10107DA45E2
:1001A00001D100F031F8AFF2090EBAE80F0013F0F8
:1001B000010F18BFFB1A43F0010318470C08000099
:1001C0002C080000103A24BF78C878C1FAD852072A
:1001D00024BF30C830C144BF04680C6070470000C1
:1001E0000023002400250026103A28BF78C1FBD840
:1001F000520728BF30C148BF0B6070471FB500F0E1
:10020000DDFB1FBD10B510BD00F06EF81146FFF705
:10021000F5FF00F079FB00F0A0F803B4FFF7F2FF60
:1002200003BC00F05FFB0000094880470948004715
:10023000FEE7FEE7FEE7FEE7FEE7FEE7FEE7FEE796
:10024000FEE7FEE704480549054A064B70470000F3
:1002500011060008890100088000002080060020A7
:100260008002002080020020704700000FB4044983
:1002700010B503AA029800F009F810BC5DF814FB51
:100280001C0000207047704770477047074B70B5DF
:100290000D467B4400F011F80446284600F020F893
:1002A00010B14FF0FF3070BD204670BD5306000006
:1002B00001694A1C02610878704700B58FB0CDE92A
:1002C00001310021059105497944CDE9031011461A
:1002D000684600F02EF80FB000BD0000E5FFFFFFFC
:1002E000007B00F080007047754600F03FF8AE4696
:1002F00005006946534620F00700854618B020B532
:10030000FFF7A0FFBDE820404FF000064FF00007C8
:100310004FF000084FF0000B21F00701AC46ACE8AD
:10032000C009ACE8C009ACE8C009ACE8C0098D461A
:1003300070472DE9F04106460024D6E90170F568C2
:100340008046304603E04146B847641C3046A84723
:100350000028F8D12046BDE8F08110B50446AFF37F
:1003600000802046BDE81040FFF757BF00487047A7
:1003700020000020F0B50023012403270D6804FAB3
:1003800003F21540954242D1D0F800C05E0007FA52
:1003900006F52CEA050CC0F800C091F804C0D0F8AE
:1003A00000E00CFA06FC4CEA0E0CC0F800C091F814
:1003B00004C0BCF1010F02D0BCF1020F1FD1D0F874
:1003C00008C02CEA050CC0F808C091F805C0D0F8A8
:1003D00008E00CFA06FC4CEA0E0CC0F808C0D0F895
:1003E00004C02CEA020CC0F804C0426891F806C0B0
:1003F0000CFA03FC1FFA8CFC42EA0C024260C26851
:10040000AA43C260CA79C568B2402A43C2605B1C75
:10041000102BB3D3F0BD4B07DB0E9A40C90810B5C3
:1004200000EB8100016A0F249C40A1430162016A34
:100430001143016210BD000030B50F22C47801786D
:100440000123FCB1144C246801F1E02104F4E064C0
:10045000C4F5E064C4F30724C4F10405E240447821
:10046000AC408578154025432A0181F800240078A6
:1004700000F01F018B404009800000F1E020C0F82F
:10048000003130BD01F01F0083404809800000F1B9
:10049000E020C0F8803130BD0CED00E0044A0029B6
:1004A000116801D0014300E08143116070470000F2
:1004B00030380240044A0029116801D0014300E0AD
:1004C00081431160704700004438024070B5204AF3
:1004D0001168204C11F00C0104D06610042903D0DF
:1004E000082903D004601BE0066019E01849091FC1
:1004F0000B68C3F380550B6803F03F0315B1B6FBDF
:10050000F3F301E0B4FBF3F30C680968C4F3881457
:100510006343C1F30141491C4900B3FBF1F10160A0
:1005200011680F2303EA11110B4B5C5C0168E14079
:1005300041601468072505EA94241C5D21FA04F43F
:100540008460126805EA52329A5CD140C16070BD85
:10055000083802400024F400000000200CB5002000
:100560002749019000900A6842F480320A604FF4F3
:10057000A0430A6802F400320092019A521C0192D0
:10058000009A12B9019A9A42F3D10A68920334D5BB
:10059000012000901A484030026842F08052026008
:1005A0001848026842F44042026015480830026868
:1005B0000260026842F400420260026842F4A05203
:1005C0000260031F104A1A600A6842F080720A60D3
:1005D0000A689201FCD50D4A40F20571116001686C
:1005E00021F003010160016841F00201016001682E
:1005F000C1F381010229FAD10CBD00900CBD0000AD
:10060000003802400070004008544007003C02409F
:10061000124810B5016841F470010160104801688A
:1006200041F0010101600E4A0021083211600268A8
:100630000C4B1A400260031D0B4A1A60026822F438
:100640008022026006480C300160FFF787FF0349F3
:100650004FF000608039086010BD000088ED00E0B8
:1006600000380240FFFFF6FE1030002410B5084CA1
:100670000121204600F013F8012807D0012120466F
:1006800000F00AF803480168491C016010BD000031
:100690000010004018000020C94301827047024644
:1006A0000020138A92890B4202EA010202D0002A3A
:1006B00000D001207047000070B5084D40F225546D
:1006C0002146284600F026F8012805D12146284673
:1006D000BDE8704000F007B870BD00000010014098
:1006E000C943018070470A0A01219140C943018032
:1006F00070470029818902D041F4005101E021F4C2
:100700000051818170470246002012880A4200D0C1
:100710000120704730B501F01F0201240025C1F30C
:10072000421304FA02F2012B0FD0022B0FD0838A5E
:100730004FEA11210088134204FA01F400EA040090
:1007400001D000B10125284630BD8389F0E7038A36
:10075000EEE710B5C1F3421301F01F040121A140DF
:10076000012B07D0022B07D01430002A026805D0D5
:100770000A4304E00C30F8E71030F6E78A430260E1
:1007800010BD00007FB50446008A0D4620F440519C
:10079000E88808432082A08941F20C618843A98837
:1007A0002A8911436A8902431143A181A08A20F456
:1007B0004071A8890843A0826846FFF787FE1A485F
:1007C000844202D01948844201D1039800E0029883
:1007D000A189090400EBC00101EB0010296801D5D3
:1007E000490000E08900B0FBF1F26420B2FBF0F1B7
:1007F00009010B096FF018056B4302EB8302A38913
:100800001D044FF0320306D503EBC202B2FBF0F039
:1008100000F0070005E003EB0212B2FBF0F000F07D
:100820000F00084320817FBD0010014000140140EB
:10083000F0B50646012187B00846FFF72FFE0121DB
:100840001020FFF737FE02208DF8140000248DF8E9
:10085000164001254FF4C0618DF817501F4F0491C9
:100860008DF8150004A93846FFF784FD07220921F9
:100870003846FFF7D0FD07220A213846FFF7CBFDA7
:100880000C20ADF80A00ADF80640ADF80C40ADF80C
:100890000840ADF80440124C009669462046FFF728
:1008A00071FF25208DF818008DF81B508DF8195018
:1008B0008DF81A5006A8FFF7BFFD012240F225511E
:1008C0002046FFF746FF01212046FFF712FF402197
:1008D0002046FFF705FF07B0F0BD00000000024012
:1008E000001001407047000070B5064C05464021DD
:1008F0002046FFF708FF0128F9D1E8B2A08028467A
:1009000070BD0000001001404FF4E130FFF790FF90
:100910000DA0FFF7ABFC12A0FFF7A8FC194C206854
:1009200019490840B0F1005F0AD118A0FFF79EFCFA
:1009300060681C4948600860216881F30888804726
:1009400019A0FFF793FCFEE77468697320697320B0
:10095000626F6F746C6F61646572212121210A00DE
:1009600020312073206C61746572206A756D70206F
:10097000746F206170706C69636174696F6E0A20B6
:1009800000000000004000080000FE2F206A756D86
:100990007020746F20206170706C69636174696F7E
:1009A0006E200A0010000020206E6F206170706CB5
:1009B00069636174696F6E200A0000004FF0407037
:1009C000E1EE100A70470000E8090008000000206E
:1009D00020000000C4010008080A000820000020D0
:1009E00060060000E00100080000000001020304AE
:1009F00001020304060708090000000000000000CF
:080A00000000000000000000EE
:040000050800018965
:00000001FF
